:1000000002EF01F00000000000EF00F0000000002F
:0A0010000000000000000000F3D71C
:0A001C00210E0D6E0D2EFED712000E
:100026000F0E0C6E470E0D6E0D2EFED70C2EFCD746
:06003600000000001200B2
:06003C00000000001200AC
:1000420018BE02D0839E01D0838E18BC02D0839C3E
:1000520001D0838C18BA02D0839A01D0838A18B84F
:1000620002D0839801D0838815B002D0848001D059
:1000720084908482E2DF849218B602D0839E01D0FB
:10008200838E18B402D0839C01D0838C18B202D024
:10009200839A01D0838A18B002D0839801D08388D2
:1000A20015B002D0848001D084908482C6DF84920D
:0C00B20015A002D0B7DF01D0B0DF1200B3
:0C00BE00159017C018F0BEDF158012006E
:1000CA00400E186EB9DF166A1650070811E36E0E55
:1000DA001624F66E020EF76E000EF722000EF86E68
:1000EA00000EF8220900F5CF17F0E4DF162AECD744
:1000FA00166A1650070811E3660E1624F66E020EEB
:10010A00F76E000EF722000EF86E000EF8220900B4
:10011A00F5CF17F0CFDF162AECD7166A1650070864
:10012A0011E35E0E1624F66E020EF76E000EF7222B
:10013A00000EF86E000EF8220900F5CF17F0BADFAC
:0C014A00162AECD7020E186E77DF1200A8
:10015600969296909598959A959C959E8492849061
:10016600839E839C839A83985BDF5ADF59DF838A59
:100176008388848260DF849253DF84825CDF84928A
:100186004FDF848258DF84924BDF8398848253DF6B
:10019600849246DF84824FDF8492839A838E8482A0
:1001A6004ADF84923DDF839E8388848244DF849283
:1001B6008398848240DF849233DF84823CDF84929A
:1001C6008388848238DF84922BDF8398848233DFAE
:1001D6008492838E838C838A838884822CDF8492A4
:0601E6001FDF158012006E
:0801EC00800E186E28DF1200DE
:1001F4000900F5CFE6FF0006FBE10106F9E1120074
:100204000F0EC16EA6DF5FDF0C0E186E18DFECDF79
:10021400030E0B6E8A0E0C6E550E0D6E0D2EFED750
:100224000C2EFCD70B2EFAD700000000010E176E1F
:1002340044DFDADF030E0B6E8A0E0C6E550E0D6E64
:100244000D2EFED70C2EFCD70B2EFAD70000000083
:0A025400020E176E32DFDBD7FFD772
:08025E00000E1F1F1F1F0E0000
:08026600000F1F1C1C1F0F00FC
:08026E001F1F0E04040E1F1FE8
:020000040030CA
:0D000100021F1EFF8381FF0FC00FE00F40A4
:00000001FF
