:1000000016EF02F00000000000EF00F0000000001A
:0A0010000000000000000000F3D71C
:08001C000AAE029E000E120064
:100024000B840BAE1DEF00F0010E036E026A016A31
:0A003400006A0A360232FF0E1200C5
:0E003E00026A016A006A086A036A000E120074
:10004C000B800BAE32EF00F0026A0AAEFF0E026EAE
:0C005C00016E006E0A360232FF0E120028
:100068000C6A0E6A0250D8A44DEF00F001C002F0ED
:1000780000C001F0006A0E860250D8A44DEF00F0CF
:1000880001C002F0016A0E960E880250D8B45FEFE4
:1000980000F00E50035ED8A4D8A064EF00F0D8900A
:1000A80002BE69EF00F0003601360236032E54EF27
:1000B80000F064EF00F0010E0C6EBDDF6CEF00F095
:1000C800020E0C6EABDF6CEF00F0040E0C6EA2DFBC
:0200D800120014
:0C00DA000E0E0D6E0D2EFED70000120061
:1000E6000B820BAE7DEF00F00368026801680068C2
:0800F6000A360232FF0E12006F
:1000FE000B6A0350D8B4C5EF00F002500A6E028EA0
:10010E008E0E035E03AEC9EF00F0036C080E035CA7
:10011E00D8A0A4EF00F0036E013602C001F0026A0F
:10012E00080E035CD8A0A4EF00F0036E0136016A3E
:10013E000350D8A4D890AEEF00F00350D8B4AEEF71
:10014E0000F0D89002320132032EA8EF00F00BBC63
:10015E0001A0BBEF00F0D8A0BBEF00F0012AD8B48D
:10016E00022A02BED8EF00F00AAEDDEF00F0021E4A
:10017E00011E012AD8B4022ADDEF00F0026A016ADC
:10018E00DDEF00F00B800BAEE1EF00F0026A0AAE7D
:10019E00E1EF00F0FF0E026E016E0A360232E1EF61
:1001AE0000F0010E0C6E4BDFE3EF00F0000E0C6E54
:1001BE00E3EF00F0FF0E0C6E0150006E0250016E68
:0201CE0012001D
:1001D000C26A070EC012C08E19C000F0003600902F
:1001E000003600900050C212C28077DFC282C2A2E5
:1001F00001D0FDD7C4CF01F0006AC3500012000E39
:060200000112C290120081
:100206000900F5CFE6FF0006FBE10106F9E1120061
:100216000A6A0350D8A40A800750D8A40A820A5052
:10022600D8B46EEF01F0030AD8B427EF01F00AB094
:1002360022EF01F006AE6CEF01F06AEF01F002AEBC
:100246006AEF01F06CEF01F00250800B0A6E029E1D
:100256000650800B069E0A18D8B438EF01F00A50F3
:10026600D8B46AEF01F06CEF01F00750035CD8B424
:1002760042EF01F0D8A05EEF01F064EF01F0065006
:10028600025CD8B44CEF01F0D8A05EEF01F064EF49
:1002960001F00550015CD8B456EF01F0D8A05EEF2E
:1002A60001F064EF01F00450005CD8B46EEF01F089
:1002B600D8B064EF01F00A52D8B46CEF01F06AEFDF
:1002C60001F00A52D8B46AEF01F06CEF01F0D88061
:0E02D6001200D8901200D880D88412001200B6
:1002E400086A096A000E07620364F7EF01F002501E
:1002F40006180A6E075003267E0ED8A088EF01F078
:10030400035ED8B0FBEF01F08CEF01F0035ED8A0E0
:10031400FFEF01F0028E068E02C00EF001C00BF05A
:1003240000C00DF000500402F4CF0CF0015005029F
:10033400F4CF00F0F3CF08F00402F3500C26F4508D
:100344000822000E00220D500502F3500C26F45032
:100354000822000E002202500402F3500826F45032
:10036400002202500502016A000E0122F350002609
:10037400F45001220D500602F3500826F4500022D6
:10038400026A000E012202220B500602F3500026DC
:10039400F4500122000E02220E500602F3500126F0
:1003A400F450022202BEDFEF01F0083600360136B7
:1003B40002360306D8B4FFEF01F0F2EF01F0D88063
:1003C400800E08640030000E002201220222D8A010
:1003D400F2EF01F0023201320032034AFBEF01F086
:1003E4000AAE029E000E01EF02F0010E26DE01EFBE
:1003F40002F0020E76DE01EF02F0040E11DE1200AE
:100404000050086E0150006E016A026A036A0B6AAA
:100414000C6A960E036E0A6A00C001F008C000F070
:08042400086A026A1FDE1200E3
:10042C00156A166A176A186A956A9492949482826D
:10043C00030E196EC7DEE0DF0A0E046E280E056E81
:10044C00200E066E770E076E47DF000E046E000E50
:10045C00056E480E066E850E076E3EDF00C015F069
:10046C0001C016F002C017F003C018F0000E046EA5
:10047C00000E056E200E066E840E076EC6DE000E94
:10048C00D8B0010E006E005202E08292828415C038
:10049C0004F016C005F017C006F018C007F0000EE7
:1004AC00006E000E016E480E026E830E036EADDE02
:1004BC00000ED8B0010E006E005202E082828294CF
:1004CC0015C000F016C001F017C002F018C003F000
:0A04DC0010DE00C083FFACD7FFD78D
:020000040030CA
:0D000100021F1EFF8381FF0FC00FE00F40A4
:00000001FF
