:1000000037EF00F00000000000EF00F000000000FB
:0A0010000000000000000000F3D71C
:0C001C000E0E0D6E0D2EFED7000012001F
:100028000900F5CFE6FF0006FBE10106F9E1120041
:10003800C26A070EC012C08E17C000F000360090CA
:10004800003600900050C212C280E4DFC282C2A211
:1000580001D0FDD7C4CF01F0006AC3500012000ED2
:060068000112C29012001B
:10006E00956A176AE2DF00C015F001C016F0000EA7
:10007E00026E0150025C02E10050800802E3836AC6
:10008E0041D01650010802E11550000803E3010E9D
:10009E00836E38D01650010802E11550800803E334
:1000AE00030E836E2FD01650020802E11550000881
:1000BE0003E3070E836E26D01650020802E1155098
:1000CE00800803E30F0E836E1DD01650030802E165
:1000DE001550000803E31F0E836E14D0165003084C
:1000EE0002E11550800803E33F0E836E0BD01650CD
:1000FE00040802E11550000803E37F0E836E02D060
:08010E00FF0E836EAED7FFD790
:020000040030CA
:0D000100021F1EFF8381FF0FC00FE00F40A4
:00000001FF
