:100000003DEF03F00000000000EF00F000000000F2
:0A0010000000000000000000F3D71C
:10001C00086A096A100E0C6E013408360936045051
:10002C00085E0550D8A0053C095ED8B007D0045036
:10003C0008260550D8B0053C0926D8900036013664
:06004C000C2EEAD71200A1
:0E005200026A016A006A086A036A000E120060
:100060000B840BAE3BEF00F0010E036E026A016AD7
:0A007000006A0A360232FF0E120089
:08007A000AAE029E000E120006
:0C0082000E0E0D6E0D2EFED700001200B9
:10008E000C6A0E6A0250D8A460EF00F001C002F0B4
:10009E0000C001F0006A0E860250D8A460EF00F096
:1000AE0001C002F0016A0E960E880250D8B472EFAB
:1000BE0000F00E50035ED8A4D8A077EF00F0D890D1
:1000CE0002BE7CEF00F0003601360236032E67EFDB
:1000DE0000F077EF00F0010E0C6EB4DF7FEF00F052
:1000EE00020E0C6EB6DF7FEF00F0040E0C6EBEDF5C
:0200FE001200EE
:100100000B820BAE8AEF00F003680268016800689A
:080110000A360232FF0E120054
:100118000B800BAE98EF00F0026A0AAEFF0E026E7B
:0C012800016E006E0A360232FF0E12005B
:10013400486A050E485C0AE248504624E16E000E07
:100144004720E26E200EE66E482AF3D74850462434
:10015400E16E000E4720E26EE66A480648504624E7
:10016400496E000E47204A6E0A0E046E000E056E9C
:1001740044C000F045C001F04FDF08C000F009C0E2
:1001840001F0300E002649C0E1FF4AC0E2FF00C082
:10019400E6FF0A0E046E000E056E44C000F045C072
:1001A40001F03ADF00C044F001C045F0000E011830
:1001B40002E1000E001801E102D04806CFD7120078
:0E01C400ACB202D00000FCD744C0ADFF120068
:1001D200AECF19F0ABA202D0AB98AB8819C000F039
:0201E200120009
:1001E4000900F5CFE6FF0006FBE10106F9E1120084
:1001F400C26A070EC012C08E3AC000F000360090EA
:10020400003600900050C212C28039DFC282C2A2FE
:1002140001D0FDD7C4CF01F0006AC3500012000E14
:060224000112C29012005D
:10022A000050086E0150006E016A026A036A0B6A86
:10023A000C6A960E036E0A6A00C001F008C000F04C
:08024A00086A026A1FDF1200BE
:10025200C40E156E010E166E440E176E000E186E49
:10026200D20E1A6E010E1B6E000E1C6E000E1D6E5B
:10027200CA0E226E040E236E000E246E000E256E30
:10028200FF0E1E6EFF0E1F6E000E206E000E216E00
:10029200AC8A900EAB6E948E949C9EAA03D0AECF85
:0602A20000F0FBD7120082
:1002A8000B6A0350D8B49AEF01F002500A6E028E1E
:1002B8008E0E035E03AE9EEF01F0036C080E035C26
:1002C800D8A079EF01F0036E013602C001F0026A8E
:1002D800080E035CD8A079EF01F0036E0136016ABD
:1002E8000350D8A4D89083EF01F00350D8B483EF1B
:1002F80001F0D89002320132032E7DEF01F00BBCE1
:1003080001A090EF01F0D8A090EF01F0012AD8B435
:10031800022A02BEADEF01F00AAEB2EF01F0021EF2
:10032800011E012AD8B4022AB2EF01F0026A016A5A
:10033800B2EF01F00B800BAEB6EF01F0026A0AAE25
:10034800B6EF01F0FF0E026E016E0A360232B6EF0A
:1003580001F0010E0C6EDCDEB8EF01F0000E0C6E41
:10036800B8EF01F0FF0E0C6E0150006E0250016EE6
:02037800120071
:10037A00086A096A000E0762036442EF02F002503B
:10038A0006180A6E075003267E0ED8A0D3EF01F096
:10039A00035ED8B046EF02F0D7EF01F0035ED8A0B3
:1003AA004AEF02F0028E068E02C00EF001C00BF078
:1003BA0000C00DF000500402F4CF0CF00150050209
:1003CA00F4CF00F0F3CF08F00402F3500C26F450F7
:1003DA000822000E00220D500502F3500C26F4509C
:1003EA000822000E002202500402F3500826F4509C
:1003FA00002202500502016A000E0122F350002673
:10040A00F45001220D500602F3500826F45000223F
:10041A00026A000E012202220B500602F350002645
:10042A00F4500122000E02220E500602F350012659
:10043A00F450022202BE2AEF02F0083600360136D4
:10044A0002360306D8B44AEF02F03DEF02F0D88034
:10045A00800E08640030000E002201220222D8A079
:10046A003DEF02F0023201320032034A46EF02F057
:10047A000AAE029E000E4CEF02F0010EE5DD4CEFD3
:10048A0002F0020E38DE4CEF02F0040EE4DD120038
:10049A003D6A3AC0E9FF3BC0EAFFEECF3CF03C5070
:1004AA00000A0DE03CC044F088DE3D2A3D503A2463
:1004BA00E96E000E3B20EA6EEECF3CF0F0D7120058
:0A04CA00000E9EBA010E006E120033
:1004D400406A416A3AC042F03BC043F0800E3B1888
:1004E400006E800E005C02E1000E3A5C0BE2010E2D
:1004F400406E000E416E3A500008426E3BC043F01D
:10050400000E435642C044F043C045F03CC046F0A0
:100514003DC047F00DDE060E3E6E000E3F6E000E2F
:10052400006E3F50005C02E13E50000819E23E506C
:100534003C24E16E3F503D20E26E010E3E5C006EB5
:10054400000E3F58016E00503C24E96E01503D20DE
:10055400EA6EEECFE6FF010E3E5E000E3F5ADFD795
:100564003CC0E1FF3DC0E2FF200EE66E405041106A
:100574001AE03E6A3F6A3E503C24E96E3F503D20FB
:10058400EA6EEE50200A03E13E4A3F2AF4D7010EF8
:100594003E5E000E3F5A3E503C24E16E3F503D20EB
:0805A400E26E2D0EE66E12005E
:1005AC000A6A0350D8A40A800750D8A40A820A50B9
:1005BC00D8B439EF03F0030AD8B4F2EF02F00AB062
:1005CC00EDEF02F006AE37EF03F035EF03F002AEBD
:1005DC0035EF03F037EF03F00250800B0A6E029EEA
:1005EC000650800B069E0A18D8B403EF03F00A508D
:1005FC00D8B435EF03F037EF03F00750035CD8B4F1
:10060C000DEF03F0D8A029EF03F02FEF03F0065005
:10061C00025CD8B417EF03F0D8A029EF03F02FEF4A
:10062C0003F00550015CD8B421EF03F0D8A029EFFA
:10063C0003F02FEF03F00450005CD8B439EF03F053
:10064C00D8B02FEF03F00A52D8B437EF03F035EFE0
:10065C0003F00A52D8B435EF03F037EF03F0D8802B
:0E066C001200D8901200D880D884120012001C
:10067A000D0E2D6E2E6A2F6A306A316A326A336A1B
:10068A00346A356A366A376A386A396A190EAF6E59
:10069A00AC84DADD956A94929494386A396A800E49
:1006AA003918006E800E005C02E1070E385C0AE21F
:1006BA00260E3824E16E000E3920E26EE66A384AC8
:1006CA00392AEDD7030E3A6E90DDAADD0A0E046EC2
:1006DA00280E056E200E066E770E076E49DE000E96
:1006EA00046E000E056E480E066E850E076E40DE1D
:1006FA0000C030F001C031F002C032F003C033F064
:10070A00000E046E000E056E200E066E840E076E35
:10071A0048DF000ED8B0010E006E005200E030C073
:10072A0004F031C005F032C006F033C007F0000E05
:10073A00006E000E016E480E026E830E036E31DFEC
:10074A00000ED8B0010E006E005200E0B9DE005271
:10075A0003E03ADD00C02FF02F50560A06E182A4CA
:10076A0002D0829401D082842F6A2F50520A06E165
:10077A0082A202D0829201D082822F6A020E0B6E6E
:10078A00040E0C6EBA0E0D6E0D2EFED70C2EFCD773
:10079A000B2EFAD7000030C000F031C001F032C091
:1007AA0002F033C003F07BDD00C03AF001C03BF039
:1007BA00260E3C6E000E3D6E88DE260E3A6E000E48
:1007CA003B6E66DE0A0E446EF8DC0D0E446EF5DCF6
:1007DA00386A396A800E3918006E800E005C02E1B0
:1007EA00070E385C0AE2260E3824E16E000E392024
:1007FA00E26EE66A384A392AEDD7020E0B6E040E0B
:10080A000C6EBA0E0D6E0D2EFED70C2EFCD70B2ECB
:08081A00FAD7000057D7FFD701
:020000040030CA
:0D000100021F1EFF8381FF0FC00FE00F40A4
:00000001FF
