:10000000D6EF02F00000000000EF00F0000000005A
:0A0010000000000000000000F3D71C
:10001C00086A096A100E0C6E013408360936045051
:10002C00085E0550D8A0053C095ED8B007D0045036
:10003C0008260550D8B0053C0926D8900036013664
:06004C000C2EEAD71200A1
:080052000AAE029E000E12002E
:0E005A00026A016A006A086A036A000E120058
:100068000B840BAE3FEF00F0010E036E026A016ACB
:0A007800006A0A360232FF0E120081
:0C0082000E0E0D6E0D2EFED700001200B9
:10008E000B820BAE51EF00F0036802680168006846
:08009E000A360232FF0E1200C7
:1000A6000C6A0E6A0250D8A46CEF00F001C002F090
:1000B60000C001F0006A0E860250D8A46CEF00F072
:1000C60001C002F0016A0E960E880250D8B47EEF87
:1000D60000F00E50035ED8A4D8A083EF00F0D890AD
:1000E60002BE88EF00F0003601360236032E73EFAB
:1000F60000F083EF00F0010E0C6EACDF8BEF00F02A
:10010600020E0C6EAEDF8BEF00F0040E0C6E9EDF5F
:020116001200D5
:100118000B800BAE98EF00F0026A0AAEFF0E026E7B
:0C012800016E006E0A360232FF0E12005B
:10013400546A050E545C0AE254505224E16E000ED7
:100144005320E26E200EE66E542AF3D75450522404
:10015400E16E000E5320E26EE66A540654505224B7
:10016400556E000E5320566E0A0E046E000E056E78
:1001740050C000F051C001F04FDF08C000F009C0CA
:1001840001F0300E002655C0E1FF56C0E2FF00C06A
:10019400E6FF0A0E046E000E056E50C000F051C05A
:1001A40001F03ADF00C050F001C051F0000E011818
:1001B40002E1000E001801E102D05406CFD712006C
:0E01C400ACB202D00000FCD750C0ADFF12005C
:1001D200496A46C0E9FF47C0EAFFEECF48F04850FF
:1001E200000A0DE048C050F0ECDF492A495046248D
:1001F200E96E000E4720EA6EEECF48F0F0D712000B
:100202000050086E0150006E016A026A036A0B6AAE
:100212000C6A960E036E0A6A00C001F008C000F074
:08022200086A026A3FDF1200C6
:10022A000900F5CFE6FF0006FBE10106F9E112003D
:10023A00C40E226E010E236E500E246E000E256E21
:10024A009A0E2E6E050E2F6E000E306E000E316E57
:10025A00900E2A6E050E2B6E000E2C6E000E2D6E61
:10026A00FF0E266EFF0E276E000E286E000E296EF8
:10027A00AC8A900EAB6E948E949C9EAA03D0AECF9D
:06028A0000F0FBD712009A
:100290000B6A0350D8B48EEF01F002500A6E028E42
:1002A0008E0E035E03AE92EF01F0036C080E035C4A
:1002B000D8A06DEF01F0036E013602C001F0026AB2
:1002C000080E035CD8A06DEF01F0036E0136016AE1
:1002D0000350D8A4D89077EF01F00350D8B477EF4B
:1002E00001F0D89002320132032E71EF01F00BBC05
:1002F00001A084EF01F0D8A084EF01F0012AD8B466
:10030000022A02BEA1EF01F00AAEA6EF01F0021E22
:10031000011E012AD8B4022AA6EF01F0026A016A7E
:10032000A6EF01F00B800BAEAAEF01F0026A0AAE55
:10033000AAEF01F0FF0E026E016E0A360232AAEF3A
:1003400001F0010E0C6EE8DEACEF01F0000E0C6E59
:10035000ACEF01F0FF0E0C6E0150006E0250016E0A
:02036000120089
:10036200C26A070EC012C08E46C000F0003600906E
:10037200003600900050C212C28082DEC282C2A247
:1003820001D0FDD7C4CF01F0006AC3500012000EA5
:060392000112C2901200EE
:10039800086A096A000E0762036451EF02F002500E
:1003A80006180A6E075003267E0ED8A0E2EF01F069
:1003B800035ED8B055EF02F0E6EF01F0035ED8A077
:1003C80059EF02F0028E068E02C00EF001C00BF04B
:1003D80000C00DF000500402F4CF0CF001500502EB
:1003E800F4CF00F0F3CF08F00402F3500C26F450D9
:1003F8000822000E00220D500502F3500C26F4507E
:100408000822000E002202500402F3500826F4507D
:10041800002202500502016A000E0122F350002654
:10042800F45001220D500602F3500826F450002221
:10043800026A000E012202220B500602F350002627
:10044800F4500122000E02220E500602F35001263B
:10045800F450022202BE39EF02F0083600360136A7
:1004680002360306D8B459EF02F04CEF02F0D880F8
:10047800800E08640030000E002201220222D8A05B
:100488004CEF02F0023201320032034A55EF02F01B
:100498000AAE029E000E5BEF02F0010EDADD5BEFA2
:1004A80002F0020EF0DD5BEF02F0040ED9DD12005F
:1004B8004C6A4D6A46C04EF047C04FF0800E471850
:1004C800006E800E005C02E1000E465C0BE2010E3D
:1004D8004C6E000E4D6E465000084E6E47C04FF0F1
:1004E800000E4F564EC050F04FC051F048C052F069
:1004F80049C053F01BDE060E4A6E000E4B6E000E0E
:10050800006E4B50005C02E14A50000819E24A5064
:100518004824E16E4B504920E26E010E4A5C006EA1
:10052800000E4B58016E00504824E96E01504920D6
:10053800EA6EEECFE6FF010E4A5E000E4B5ADFD799
:1005480048C0E1FF49C0E2FF200EE66E4C504D1056
:100558001AE04A6A4B6A4A504824E96E4B504920CF
:10056800EA6EEE50200A03E14A4A4B2AF4D7010EFC
:100578004A5E000E4B5A4A504824E16E4B504920BF
:08058800E26E2D0EE66E12007A
:0A059000000E9EBA010E006E12006C
:10059A00AECF21F0ABA202D0AB98AB8821C000F05D
:0205AA0012003D
:1005AC005B0E156E310E166E330E176E3B0E186EFB
:1005BC00310E196E300E1A6E480E1B6E1C6A5B0ED5
:1005CC001D6E320E1E6E4A0E1F6E206A0D0E396E97
:1005DC003A6A3B6A3C6A3D6A3E6A3F6A406A416AD3
:1005EC00426A436A446A456A190EAF6EAC841FDED8
:1005FC00956A94929494446A456A800E4518006EEC
:10060C00800E005C02E1070E445C0AE2320E4424C8
:10061C00E16E000E4520E26EE66A444A452AEDD7AB
:10062C00030E466E98DEE7DD0A0E046E280E056E8C
:10063C00200E066E770E076EA9DE000E046E000EFD
:10064C00056E480E066E850E076EA0DE00C03CF0EF
:10065C0001C03DF002C03EF003C03FF093DF0052FA
:10066C0003E095DF00C03BF03B50560A06E182A444
:10067C0002D0829401D082843B6A3B50520A06E13C
:10068C0082A202D0829201D082823B6A020E0B6E51
:10069C00040E0C6EBA0E0D6E0D2EFED70C2EFCD762
:1006AC000B2EFAD700003CC000F03DC001F03EC05C
:1006BC0002F03FC003F0E6DD00C046F001C047F099
:1006CC00320E486E000E496EF1DE1B0E506E74DD5C
:1006DC001D0E466E000E476E76DD1B0E506E6CDDE9
:1006EC00150E466E000E476E6EDD446A456A3CC0C0
:1006FC0000F03DC001F03EC002F03FC003F0C2DD8F
:10070C00800E4518026E800E0118025C02E100504A
:10071C00445C06E22A0E506E4FDD444A452AE7D768
:10072C00320E466E000E476E4EDD6F0E506E44DD7F
:10073C00430E506E41DD0A0E506E3EDD0D0E506EB6
:10074C003BDD446A456A800E4518006E800E005CE5
:10075C0002E1070E445C0AE2320E4424E16E000E04
:10076C004520E26EE66A444A452AEDD7020E0B6E2E
:10077C00040E0C6EBA0E0D6E0D2EFED70C2EFCD781
:0A078C000B2EFAD700004CD7FFD760
:020000040030CA
:0D000100021F1EFF8381FF0FC00FE00F40A4
:00000001FF
