:1000000008EF03F00000000000EF00F00000000027
:0A0010000000000000000000F3D71C
:10001C00220E0C6E086A096A0A6A0B6A0C06D8B4BE
:10002C001FD0D8900B320A32093208320332023216
:10003C0001320032D8A0F2D70C06D8B409D0045043
:10004C0008260550092206500A2207500B22EAD72F
:10005C00045008260550092206500A2207500B228C
:02006C00120080
:10006E00400E006E1F0E016E000E026E036E120029
:10007E000B6A0A6A096A086A0E6A03340836045063
:10008E00085E0550D8A0053C095E0650D8A0063C77
:10009E000A5E0750D8A0073C0B5EE86AD8A0010E96
:1000AE000E5E0336070E0C6E0334083609360A361A
:1000BE000B360E36045003A012D0085E0550D8A0A1
:1000CE00053C095E0650D8A0063C0A5E0750D8A033
:1000DE00073C0B5EE86AD8A0010E0E5E11D0082612
:1000EE000550D8B0053C09260650D8B0063C0A2665
:1000FE000750D8B0073C0B26E86AD8B0010E0E2682
:10010E0003360C2ED1D70234083609360A360B3692
:10011E000E36045003A012D0085E0550D8A0053C40
:10012E00095E0650D8A0063C0A5E0750D8A0073CD0
:10013E000B5EE86AD8A0010E0E5E11D0082605509F
:10014E00D8B0053C09260650D8B0063C0A26075002
:10015E00D8B0073C0B26E86AD8B0010E0E26023640
:10016E00070E0C6E0234083609360A360B360E367A
:10017E00045002A012D0085E0550D8A0053C095EBE
:10018E000650D8A0063C0A5E0750D8A0073C0B5E6E
:10019E00E86AD8A0010E0E5E11D008260550D8B020
:1001AE00053C09260650D8B0063C0A260750D8B0A2
:1001BE00073C0B26E86AD8B0010E0E2602360C2E2E
:1001CE00D1D70134083609360A360B360E360450AE
:1001DE0002A012D0085E0550D8A0053C095E06505C
:1001EE00D8A0063C0A5E0750D8A0073C0B5EE86A12
:1001FE00D8A0010E0E5E11D008260550D8B0053CD1
:10020E0009260650D8B0063C0A260750D8B0073C3F
:10021E000B26E86AD8B0010E0E260136070E0C6EBC
:10022E000134083609360A360B360E36045001A054
:10023E0012D0085E0550D8A0053C095E0650D8A025
:10024E00063C0A5E0750D8A0073C0B5EE86AD8A0B1
:10025E00010E0E5E11D008260550D8B0053C0926B9
:10026E000650D8B0063C0A260750D8B0073C0B26DD
:10027E00E86AD8B0010E0E2601360C2ED1D7003406
:10028E00083609360A360B360E36045001A012D047
:10029E00085E0550D8A0053C095E0650D8A0063C65
:1002AE000A5E0750D8A0073C0B5EE86AD8A0010E84
:1002BE000E5E11D008260550D8B0053C0926065012
:1002CE00D8B0063C0A260750D8B0073C0B26E86A81
:1002DE00D8B0010E0E260036070E0C6E003408360E
:1002EE0009360A360B360E36045000A012D0085EC0
:1002FE000550D8A0053C095E0650D8A0063C0A5E03
:10030E000750D8A0073C0B5EE86AD8A0010E0E5E1F
:10031E0011D008260550D8B0053C09260650D8B095
:10032E00063C0A260750D8B0073C0B26E86AD8B020
:10033E00010E0E2600360C2ED1D700B00ED0045072
:10034E0008260550D8B0053C09260650D8B0063C04
:0C035E000A260750D8B0073C0B261200FE
:10036A003706370637C001F037060150000803E2A6
:10037A0000000000F7D700000000000000000000A5
:02038A0012005F
:10038C00086A096A100E0C6E0134083609360450DE
:10039C00085E0550D8A0053C095ED8B007D00450C3
:1003AC0008260550D8B0053C0926D89000360136F1
:0603BC000C2EEAD712002E
:1003C20055DEE80E046E030E056E000E066E076E15
:1003D20024DE00C033F001C034F002C035F003C0A7
:1003E20036F02BC004F02CC005F0000E066E076E2E
:1003F20045DE00C033F001C034F002C035F003C066
:1004020036F000C005F001C006F002C007F003C0DC
:1004120008F00832073206320532089E08320732E7
:1004220006320532089E05C000F006C001F007C082
:1004320002F008C003F00332023201320032039E9E
:1004420000C02FF001C030F011DE2DC004F02EC02C
:1004520005F0000E066E076EE0DD2FC009F030C019
:100462000AF0000E0B6E0C6E030E086E09C004F04B
:100472000AC005F00BC006F00CC007F0085007E0F8
:1004820004360490053606360736FF0FF8D7F6DD38
:1004920000C033F001C034F002C035F003C036F0C2
:1004A2000A0E046E000E056E2FC000F030C001F07F
:1004B2006CDF00C02FF001C030F0000E015C02E1E1
:1004C200030E005C01E212001AC0E9FF1BC0EAFF42
:1004D2003650000808E13550000805E134500008A4
:1004E20002E1335000082FE21C50EF1230520DE0AF
:1004F200316A326A000E325C02E13050315C05E250
:10050200376A32DF314A322AF5D72FC037F02CDF73
:100512001550EF1630520DE0316A326A000E325C2D
:1005220002E13050315C05E2376A1EDF314A322A7D
:10053200F5D72FC037F018DF010E335E000E345AA4
:0C054200355A365AC5D71550EF16120076
:10054E00FF0E166EFF0E176EFF0E186EFF0E196E53
:10055E00F40E226E050E236E000E246E000E256E16
:10056E00060E266E060E276E000E286E000E296EE3
:10057E00FF0E1D6EFF0E1E6E000E1F6E000E206E05
:10058E00AC8A900EAB6E948E949C9EAA03D0AECF86
:06059E0000F0FBD7120083
:1005A4000900F5CFE6FF0006FBE10106F9E11200C0
:1005B4002BC01AF02CC01BF02DC001F0010E006EF0
:1005C400015004E000360090FF0FFBD700C01CF080
:1005D400001E00C015F0120E2B24E96E000E2C2014
:1005E400EA6E0050EF16120EE95E0050EF1612008C
:1005F400AECF21F0ABA202D0AB98AB8821C000F003
:020604001200E2
:0A060600000E9EBA010E006E1200F5
:100610002A6A190EAF6EAC849ADF820E2B6E0F0E13
:100620002C6E020E2D6EC6DFEEDF005203E0E2DF1D
:1006300000C02AF064D0C80E2B6E000E2C6E190E6E
:100640002D6E000E2E6EBDDE78D0900E2B6E010E3C
:100650002C6E190E2D6E000E2E6EB3DE6ED0580E5F
:100660002B6E020E2C6E190E2D6E000E2E6EA9DE54
:1006700064D0200E2B6E030E2C6E190E2D6E000E04
:100680002E6E9FDE5AD0E80E2B6E030E2C6E190EC6
:100690002D6E000E2E6E95DE50D0B00E2B6E040E19
:1006A0002C6E190E2D6E000E2E6E8BDE46D0780E3F
:1006B0002B6E050E2C6E190E2D6E000E2E6E81DE29
:1006C0003CD0400E2B6E060E2C6E190E2D6E000EB9
:1006D0002E6E77DE32D0080E2B6E070E2C6E190EA2
:1006E0002D6E000E2E6E6DDE28D0D00E2B6E070EF6
:1006F0002C6E190E2D6E000E2E6E63DE1ED02A504B
:10070000310A99E02A50320AA0E02A50330AA7E0C1
:100710002A50340AAEE02A50350AB5E02A50360A8B
:10072000BCE02A50370AC3E02A50380ACAE02A50EF
:0E073000390AD1E02A50300AD8E076D7FFD738
:020000040030CA
:0D000100021F1EFF8381FF0FC00FE00F40A4
:00000001FF
