:100000008BEF01F00000000000EF00F000000000A6
:0A0010000000000000000000F3D71C
:0E001C00ACB202D00000FCD730C0ADFF120025
:10002A002F6A2CC0E9FF2DC0EAFFEECF2EF02E502A
:10003A00000A0DE02EC030F0ECDF2F2A2F502C24BE
:10004A00E96E000E2D20EA6EEECF2EF0F0D71200E8
:10005A00700E816E81B010D081B001D0FDD7340E00
:10006A000C6EF10E0D6E0D2EFED70C2EFCD7000075
:10007A000000410E006E120081B210D081B201D090
:10008A00FDD7340E0C6EF10E0D6E0D2EFED70C2E12
:10009A00FCD700000000420E006E120081B410D09E
:1000AA0081B401D0FDD7340E0C6EF10E0D6E0D2EFB
:1000BA00FED70C2EFCD700000000430E006E120083
:1000CA0081B610D081B601D0FDD7340E0C6EF10E78
:1000DA000D6E0D2EFED70C2EFCD700000000440E2C
:1000EA00006E1200B00E816E81B010D081B001D0C6
:1000FA00FDD7340E0C6EF10E0D6E0D2EFED70C2EA2
:10010A00FCD700000000330E006E120081B210D03E
:10011A0081B201D0FDD7340E0C6EF10E0D6E0D2E8C
:10012A00FED70C2EFCD700000000360E006E12001F
:10013A0081B410D081B401D0FDD7340E0C6EF10E0B
:10014A000D6E0D2EFED70C2EFCD700000000390EC6
:10015A00006E120081B610D081B601D0FDD7340EE0
:10016A000C6EF10E0D6E0D2EFED70C2EFCD7000074
:10017A000000230E006E1200D00E816E81B010D0E6
:10018A0081B001D0FDD7340E0C6EF10E0D6E0D2E1E
:10019A00FED70C2EFCD700000000320E006E1200B3
:1001AA0081B210D081B201D0FDD7340E0C6EF10E9F
:1001BA000D6E0D2EFED70C2EFCD700000000350E5A
:1001CA00006E120081B410D081B401D0FDD7340E74
:1001DA000C6EF10E0D6E0D2EFED70C2EFCD7000004
:1001EA000000380E006E120081B610D081B601D020
:1001FA00FDD7340E0C6EF10E0D6E0D2EFED70C2EA1
:10020A00FCD700000000300E006E1200E00E816E76
:10021A0081B010D081B001D0FDD7340E0C6EF10E32
:10022A000D6E0D2EFED70C2EFCD700000000310EED
:10023A00006E120081B210D081B201D0FDD7340E07
:10024A000C6EF10E0D6E0D2EFED70C2EFCD7000093
:10025A000000340E006E120081B410D081B401D0B7
:10026A00FDD7340E0C6EF10E0D6E0D2EFED70C2E30
:10027A00FCD700000000370E006E120081B610D0C5
:10028A0081B601D0FDD7340E0C6EF10E0D6E0D2E17
:10029A00FED70C2EFCD7000000002A0E006E1200BA
:0602AA00FF0E006E1200C1
:1002B0000900F5CFE6FF0006FBE10106F9E11200B7
:1002C0001C0E236E000E246E300E256E000E266E60
:1002D000FF0E1B6EFF0E1C6E000E1D6E000E1E6EBE
:1002E000FF0E1F6EFF0E206E000E216E000E226E9E
:1002F000FF0E286EFF0E296E000E2A6E000E2B6E6A
:10030000AC8A900EAB6E948E949C9EAA03D0AECF16
:0603100000F0FBD7120013
:10031600530E156E740E166E610E176E720E186EF3
:10032600740E196E1A6A0F0E936EF19E0F0EC16E41
:10033600190EAF6EAC84C1DF020E0B6E040E0C6E8E
:10034600BA0E0D6E0D2EFED70C2EFCD70B2EFAD73D
:100356000000150E2C6E000E2D6E64DE7BDE00C0D6
:1003660027F02750FF0A04E175DE00C027F0F9D711
:0A03760027C030F050DEF2D7FFD7A9
:020000040030CA
:0D000100021F1EFF8381FF0FC00FE00F40A4
:00000001FF
