:1000000009EF06F00000000000EF00F00000000023
:0A0010000000000000000000F3D71C
:06001C00000000001200CC
:100022000F0E0C6E470E0D6E0D2EFED70C2EFCD74A
:06003200000000001200B6
:0A003800210E0D6E0D2EFED71200F2
:100042000B840BAE2CEF00F0010E036E026A016A04
:0A005200006A0A360232FF0E1200A7
:0E005C00026A016A006A086A036A000E120056
:08006A000AAE029E000E120016
:100072000B820BAE43EF00F0036802680168006870
:080082000A360232FF0E1200E3
:10008A0055BE02D0839E01D0838E55BC02D0839C7C
:10009A0001D0838C55BA02D0839A01D0838A55B88D
:1000AA0002D0839801D0838834B002D0848001D0F2
:1000BA0084908482AEDF849255B602D0839E01D0AA
:1000CA00838E55B402D0839C01D0838C55B202D062
:1000DA00839A01D0838A55B002D0839801D083884D
:1000EA0034B002D0848001D08490848292DF8492DA
:0C00FA0034A002D091DF01D09ADF120088
:10010600086A096A000E0762036408EF01F00250EC
:1001160006180A6E075003267E0ED8A099EF00F047
:10012600035ED8B00CEF01F09DEF00F0035ED8A09F
:1001360010EF01F0028E068E02C00EF001C00BF029
:1001460000C00DF000500402F4CF0CF0015005027F
:10015600F4CF00F0F3CF08F00402F3500C26F4506D
:100166000822000E00220D500502F3500C26F45012
:100176000822000E002202500402F3500826F45012
:10018600002202500502016A000E0122F3500026E9
:10019600F45001220D500602F3500826F4500022B6
:1001A600026A000E012202220B500602F3500026BC
:1001B600F4500122000E02220E500602F3500126D0
:1001C600F450022202BEF0EF00F008360036013687
:1001D60002360306D8B410EF01F003EF01F0D88021
:1001E600800E08640030000E002201220222D8A0F0
:1001F60003EF01F0023201320032034A0CEF01F044
:100206000AAE029E000E12EF01F0010E24DF12EF7D
:1002160001F0020E2BDF12EF01F0040E0FDF1200C9
:0C0226000E0E0D6E0D2EFED70000120013
:100232000B800BAE25EF01F0026A0AAEFF0E026ED2
:0C024200016E006E0A360232FF0E120040
:10024E00086A080E0C6E003408360450085ED8B0EA
:0E025E0002D00826D89000360C2EF5D71200DC
:10026C0051C004F052C005F004C002F005C003F008
:10027C00044A052A53C000F054C001F0534A542AD2
:10028C0000C0E9FF01C0EAFF02C0E1FF03C0E2FFCA
:10029C00EECFE6FF02C0E9FF03C0EAFFEE5201E039
:0C02AC00E3D751C000F052C001F0120076
:1002B8000C6A0E6A0250D8A475EF01F001C002F072
:1002C80000C001F0006A0E860250D8A475EF01F054
:1002D80001C002F0016A0E960E880250D8B487EF6A
:1002E80001F00E50035ED8A4D8A08CEF01F0D8908E
:1002F80002BE91EF01F0003601360236032E7CEF84
:1003080001F08CEF01F0010E0C6EA4DE94EF01F009
:10031800020E0C6E92DE94EF01F0040E0C6EA1DE5C
:020328001200C1
:10032A000A6A0350D8A40A800750D8A40A820A503D
:10033A00D8B4F8EF01F0030AD8B4B1EF01F00AB06B
:10034A00ACEF01F006AEF6EF01F0F4EF01F002AE09
:10035A00F4EF01F0F6EF01F00250800B0A6E029EF4
:10036A000650800B069E0A18D8B4C2EF01F00A5054
:10037A00D8B4F4EF01F0F6EF01F00750035CD8B4FB
:10038A00CCEF01F0D8A0E8EF01F0EEEF01F0065053
:10039A00025CD8B4D6EF01F0D8A0E8EF01F0EEEF96
:1003AA0001F00550015CD8B4E0EF01F0D8A0E8EF05
:1003BA0001F0EEEF01F00450005CD8B4F8EF01F060
:1003CA00D8B0EEEF01F00A52D8B4F6EF01F0F4EF2C
:1003DA0001F00A52D8B4F4EF01F0F6EF01F0D88038
:0E03EA001200D8901200D880D88412001200A1
:0C03F800349051C055F045DE34801200F6
:100404000FD0800E396E19D0C00E396E16D0940EEE
:10041400396E13D0D40E396E10D0800E396E0DD0D3
:100424003950010AEEE03950020AEEE03950030A6D
:10043400EEE03950040AEEE0F0D73A04006E395089
:10044400002600C039F000C055F01DDE34903D6A2E
:100454003D503B24E96E000E3C20EA6EEE520BE068
:100464003D503B24E96E000E3C20EA6EEECF51F085
:0A047400C1DF3D2AEDD734801200ED
:10047E00400E556E03DE396A3950070811E3CA0E75
:10048E003924F66E0F0EF76E000EF722000EF86E80
:10049E00000EF8220900F5CF51F0A7DF392AECD76C
:1004AE00396A3950070811E3C20E3924F66E0F0E61
:1004BE00F76E000EF722000EF86E000EF8220900FD
:1004CE00F5CF51F092DF392AECD7396A3950070847
:1004DE0011E3DA0E3924F66E0F0EF76E000EF722C8
:1004EE00000EF86E000EF8220900F5CF51F07DDFF8
:1004FE00392AECD7396A3950070811E3D20E39245C
:10050E00F66E0F0EF76E000EF722000EF86E000E4E
:10051E00F8220900F5CF51F068DF392AECD7396A95
:10052E003950070811E3AA0E3924F66E0F0EF76E36
:10053E00000EF722000EF86E000EF8220900F5CF1D
:10054E0051F053DF392AECD7396A3950070811E3D5
:10055E00A20E3924F66E0F0EF76E000EF722000E65
:10056E00F86E000EF8220900F5CF51F03EDF392A61
:10057E00ECD7396A3950070811E3BA0E3924F66EF2
:10058E000F0EF76E000EF722000EF86E000EF82218
:10059E000900F5CF51F029DF392AECD7396A3950E5
:1005AE00070811E3B20E3924F66E0F0EF76E000E29
:1005BE00F722000EF86E000EF8220900F5CF51F06A
:0E05CE0014DF392AECD7020E556E58DD1200EC
:1005DC000900F5CFE6FF0006FBE10106F9E1120088
:1005EC00969296909598959A959C959E84928490C7
:1005FC00839E839C839A83980EDD0DDD0CDD838AAC
:10060C008388848205DD849206DD848201DD8492F8
:10061C0002DD8482FDDC8492FEDC83988482F8DC2B
:10062C008492F9DC8482F4DC8492839A838E8482B3
:10063C00EFDC8492F0DC839E83888482E9DC8492F4
:10064C0083988482E5DC8492E6DC8482E1DC84920B
:10065C0083888482DDDC8492DEDC83988482D8DC1F
:10066C008492838E838C838A83888482D1DC849267
:06067C00D2DC3480120004
:100682000B6A0350D8B487EF03F002500A6E028E51
:100692008E0E035E03AE8BEF03F0036C080E035C59
:1006A200D8A066EF03F0036E013602C001F0026AC1
:1006B200080E035CD8A066EF03F0036E0136016AF0
:1006C2000350D8A4D89070EF03F00350D8B470EF61
:1006D20003F0D89002320132032E6AEF03F00BBC12
:1006E20001A07DEF03F0D8A07DEF03F0012AD8B47A
:1006F200022A02BE9AEF03F00AAE9FEF03F0021E37
:10070200011E012AD8B4022A9FEF03F0026A016A8D
:100712009FEF03F00B800BAEA3EF03F0026A0AAE69
:10072200A3EF03F0FF0E026E016E0A360232A3EF50
:1007320003F0010E0C6E7CDDA5EF03F0000E0C6ED3
:10074200A5EF03F0FF0E0C6E0150006E0250016E19
:02075200120093
:10075400C26A070EC012C08E39C000F00036009085
:10076400003600900050C212C2805BDDC282C2A279
:1007740001D0FDD7C4CF01F0006AC3500012000EAF
:060784000112C2901200F8
:10078A004F6A506A39C041F03AC042F03BC043F068
:10079A003CC044F04450FF0A08E14350FF0A05E117
:1007AA004250FF0A02E14150FF0A13E13DC051F0F5
:1007BA003EC052F04E0E456E610E466E4E0E476EAC
:1007CA00486A450E536E000E546E4BDD030E006EE2
:1007DA001200010E3F6E43AE0AD0437E3F2A3DC04F
:1007EA00E1FF3EC0E2FF2D0EE66E3D4A3E2A000EB4
:1007FA00006E441808E10050431805E10050421801
:10080A0002E14150000A0EE13DC051F03EC052F0F3
:10081A00300E496E4A6A490E536E000E546E21DD3F
:10082A00006A12004450FF0A08E14350000A05E139
:10083A004250000A02E14150000A13E13DC051F062
:10084A003EC052F0490E4B6E4E0E4C6E460E4D6E29
:10085A004E6A4B0E536E000E546E03DD3FC000F01D
:10086A001200000E046E000E056E000E066E7F0E5C
:10087A00076E41C000F042C001F043C002F044C01C
:10088A0003F04EDD010ED8B0000E006E00521BE0E0
:10089A0041C000F042C001F043C002F044C003F07E
:1008AA00000E046E000E056E200E066E820E076E96
:1008BA0025DC00C041F001C042F002C043F003C091
:1008CA0044F05006CED7000E046E000E056E200EC0
:1008DA00066E820E076E41C000F042C001F043C0AE
:1008EA0002F044C003F01CDD000ED8B0010E006E09
:1008FA0000521CE041C000F042C001F043C002F0C7
:10090A0044C003F0CD0E046ECC0E056E4C0E066E7E
:10091A007B0E076E83EC00F000C041F001C042F08C
:10092A0002C043F003C044F0502ACDD7FF0E411451
:10093A00056EFF0E4214066E7F0E4314076E000EFC
:10094A004414086E05C000F006C001F007C002F0AA
:10095A0008C003F000360090013602360336000E56
:10096A004116000E4216000E4316FF0E44160050A2
:10097A0041120150421202504312035044127F0E98
:10098A00445C006E00C040F0010E446E00C004F0EA
:10099A0041C000F042C001F043C002F044C003F07D
:1009AA00045007E000360090013602360336FF0F86
:1009BA00F8D700C041F001C042F002C043F003C0C2
:1009CA0044F03DC0E1FF3EC0E2FF4450300FE66E06
:1009DA003D4A3E2A800E5018006E800E010A005CC5
:1009EA0008E3800E060A006E800E5018005C01E3D0
:1009FA000AD03DC0E1FF3EC0E2FF2E0EE66E3D4A40
:100A0A003E2A010E4F6E060E406E4050000A54E018
:100A1A00446A41C000F042C001F043C002F044C041
:100A2A0003F0003600900136023603360036009095
:100A3A000136023603364150002642500122435005
:100A4A0002224450032200C041F001C042F002C019
:100A5A0043F003C044F041C000F042C001F043C07B
:100A6A0002F044C003F00036009001360236033625
:100A7A0000C041F001C042F002C043F003C044F09C
:100A8A003DC0E1FF3EC0E2FF4450300FE66E3D4AF2
:100A9A003E2A4F50000A0EE150065050000A0AE161
:100AAA003DC0E1FF3EC0E2FF2E0EE66E3D4A3E2A01
:100ABA00010E4F6E4006A9D7FF0E3D24E96EFF0EC8
:100ACA003E20EA6EEE50300A05E1010E3D5E000E50
:100ADA003E5AF2D7FF0E3D24E96EFF0E3E20EA6E23
:100AEA00EE502E0A04E1010E3D5E000E3E5A5050B1
:100AFA00000A3FE03DC0E1FF3EC0E2FF650EE66E40
:100B0A003D4A3E2A800E5018006E800E000A005C94
:100B1A000BE23DC0E1FF3EC0E2FF2D0EE66E3D4A0C
:100B2A003E2A50500008506E50C040F050500908FC
:100B3A000FE20A0E046E40C000F027EC01F03DC03F
:100B4A00E1FF3EC0E2FF0050300FE66E3D4A3E2A0A
:100B5A000A0E046E40C000F027EC01F008C000F055
:100B6A003DC0E1FF3EC0E2FF0050300FE66E3D4A55
:100B7A003E2A3DC0E1FF3EC0E2FFE66A006A12007B
:100B8A000FD0800E396E19D0C00E396E16D0940E61
:100B9A00396E13D0D40E396E10D0800E396E0DD046
:100BAA003950010AEEE03950020AEEE03950030AE0
:100BBA00EEE03950040AEEE0F0D73A04006E3950FC
:100BCA00002600C039F0348000C055F045EC00F032
:0E0BDA0034903BC055F045EC00F03480120022
:100BE8000050086E0150006E016A026A036A0B6ABF
:100BF8000C6A960E036E0A6A00C001F008C000F085
:0A0C0800086A026A5CEC01F01200B9
:100C1200156A166A176A186A196A1A6A540E1B6EDE
:100C2200650E1C6E6D0E1D6E700E1E6E3A0E1F6EE0
:100C3200206A216A226A9492949482820F0EC16E73
:100C4200D4DC1CDC0C0E556E45EC00F0236A246AE1
:100C5200800E2418006E800E005C02E10F0E235CF1
:100C62000AE2250E2324E16E000E2420E26EE66ADB
:100C7200234A242AEDD7030E396E6BDD00C015F02E
:100C820001C016F0B0DF0A0E046E280E056E200EAB
:100C9200066E770E076E83EC00F0000E046E000EF7
:100CA200056E480E066E850E076E83EC00F000C0DE
:100CB20035F001C036F002C037F003C038F035C05D
:100CC20017F036C018F037C019F038C01AF035C026
:100CD20000F036C001F037C002F038C003F0D0DCBB
:100CE20000C021F001C022F035C004F036C005F08A
:100CF20037C006F038C007F0000E006E000E016E1D
:100D0200480E026E830E036E95EC01F0000ED8B011
:100D1200010E006E005203E0828282941AD0000E0D
:100D2200046E000E056E200E066E840E076E17C04E
:100D320000F018C001F019C002F01AC003F095ECDF
:100D420001F0000ED8B0010E006E005202E0829255
:100D52008284800E556E45EC00F04CD0516AFCEC5A
:100D620001F079D0010E516EFCEC01F074D0020E4C
:100D7200516EFCEC01F06FD0030E516EFCEC01F0F1
:100D82006AD0040E516EFCEC01F065D0050E516E76
:100D9200FCEC01F060D0060E516EFCEC01F05BD071
:100DA200070E516EFCEC01F056D0000E046E000EE0
:100DB200056E180E066E840E076E17C000F018C07E
:100DC20001F019C002F01AC003F095EC01F0000E18
:100DD200D8B0010E006E005205E0070E516EFCEC19
:100DE20001F007D0010E396E010E3A6E200E3B6EF5
:100DF200CBDE31D0000E221802E11F0E2118AEE028
:100E0200000E221802E1200E2118ACE0000E22187A
:100E120002E1210E2118ABE0000E221802E1220E9F
:100E22002118AAE0000E221802E1230E2118A9E0DF
:100E3200000E221802E1240E2118A8E0000E22184A
:100E420002E1250E2118A7E0000E221802E1260E6B
:100E52002118A6E0AAD7C00E556E45EC00F04CD082
:100E6200516AFCEC01F079D0010E516EFCEC01F0FC
:100E720074D0020E516EFCEC01F06FD0030E516E75
:100E8200FCEC01F06AD0040E516EFCEC01F065D06E
:100E9200050E516EFCEC01F060D0060E516EFCECBA
:100EA20001F05BD0070E516EFCEC01F056D0000E43
:100EB200046E000E056E700E066E830E076E17C06E
:100EC20000F018C001F019C002F01AC003F095EC4E
:100ED20001F0000ED8B0010E006E005205E0070EC0
:100EE200516EFCEC01F007D0020E396E010E3A6E23
:100EF200200E3B6E49DE31D0000E221802E1170EA1
:100F02002118AEE0000E221802E1180E2118ACE002
:100F1200000E221802E1190E2118ABE0000E221871
:100F220002E11A0E2118AAE0000E221802E11B0E9D
:100F32002118A9E0000E221802E11C0E2118A8E0D7
:100F4200000E221802E11D0E2118A7E0000E221841
:100F520002E11E0E2118A6E0AAD717C039F018C068
:100F62003AF019C03BF01AC03CF0250E3D6E000E5F
:100F72003E6E0ADC010E396E030E3A6E1B0E3B6E9C
:100F8200000E3C6E02EC02F0020E396E030E3A6E57
:100F9200250E3B6E000E3C6E02EC02F057D6FFD7D8
:080FA20000001F1F1F1F1F1F8D
:080FAA000000001F1F1F1F1FA4
:080FB2001F1F1F1F1F1F1F1F3F
:080FBA00001F1F1F1F1F1F1F56
:080FC2000000000000001F1FE9
:080FCA00000000000000001F00
:080FD200000000001F1F1F1F9B
:080FDA0000000000001F1F1FB2
:020000040030CA
:0D000100021F1EFF8381FF0FC00FE00F40A4
:00000001FF
